{"abi":[{"type":"constructor","inputs":[],"stateMutability":"nonpayable"},{"type":"function","name":"accessPermissions","inputs":[{"name":"","type":"address","internalType":"address"},{"name":"","type":"uint8","internalType":"enum MedicalDataAccess.Section"}],"outputs":[{"name":"isActive","type":"bool","internalType":"bool"},{"name":"expiresAt","type":"uint256","internalType":"uint256"}],"stateMutability":"view"},{"type":"function","name":"addBloodTest","inputs":[{"name":"_pdfHash","type":"string","internalType":"string"},{"name":"_description","type":"string","internalType":"string"},{"name":"_date","type":"uint256","internalType":"uint256"}],"outputs":[],"stateMutability":"nonpayable"},{"type":"function","name":"addImaging","inputs":[{"name":"_type","type":"string","internalType":"string"},{"name":"_description","type":"string","internalType":"string"},{"name":"_imageHash","type":"string","internalType":"string"},{"name":"_date","type":"uint256","internalType":"uint256"}],"outputs":[],"stateMutability":"nonpayable"},{"type":"function","name":"addMedication","inputs":[{"name":"_drug","type":"string","internalType":"string"},{"name":"_dosage","type":"string","internalType":"string"},{"name":"_frequency","type":"string","internalType":"string"},{"name":"_start","type":"uint256","internalType":"uint256"},{"name":"_end","type":"uint256","internalType":"uint256"}],"outputs":[],"stateMutability":"nonpayable"},{"type":"function","name":"admin","inputs":[],"outputs":[{"name":"","type":"address","internalType":"address"}],"stateMutability":"view"},{"type":"function","name":"grantTimedAccess","inputs":[{"name":"user","type":"address","internalType":"address"},{"name":"section","type":"uint8","internalType":"enum MedicalDataAccess.Section"},{"name":"durationSeconds","type":"uint256","internalType":"uint256"}],"outputs":[],"stateMutability":"nonpayable"},{"type":"function","name":"registerPatient","inputs":[{"name":"_mrn","type":"string","internalType":"string"},{"name":"_name","type":"string","internalType":"string"},{"name":"_age","type":"uint256","internalType":"uint256"},{"name":"_gender","type":"string","internalType":"string"},{"name":"_physicaladdress","type":"string","internalType":"string"},{"name":"_phone","type":"string","internalType":"string"},{"name":"_email","type":"string","internalType":"string"}],"outputs":[],"stateMutability":"nonpayable"},{"type":"function","name":"revokeAccess","inputs":[{"name":"user","type":"address","internalType":"address"},{"name":"section","type":"uint8","internalType":"enum MedicalDataAccess.Section"}],"outputs":[],"stateMutability":"nonpayable"},{"type":"function","name":"viewBloodTests","inputs":[{"name":"_patient","type":"address","internalType":"address"}],"outputs":[{"name":"","type":"tuple[]","internalType":"struct MedicalDataAccess.BloodTest[]","components":[{"name":"pdfHash","type":"string","internalType":"string"},{"name":"description","type":"string","internalType":"string"},{"name":"date","type":"uint256","internalType":"uint256"}]}],"stateMutability":"view"},{"type":"function","name":"viewImaging","inputs":[{"name":"_patient","type":"address","internalType":"address"}],"outputs":[{"name":"","type":"tuple[]","internalType":"struct MedicalDataAccess.ImagingRecord[]","components":[{"name":"imageType","type":"string","internalType":"string"},{"name":"description","type":"string","internalType":"string"},{"name":"imageHash","type":"string","internalType":"string"},{"name":"date","type":"uint256","internalType":"uint256"}]}],"stateMutability":"view"},{"type":"function","name":"viewMedications","inputs":[{"name":"_patient","type":"address","internalType":"address"}],"outputs":[{"name":"","type":"tuple[]","internalType":"struct MedicalDataAccess.Medication[]","components":[{"name":"drugName","type":"string","internalType":"string"},{"name":"dosage","type":"string","internalType":"string"},{"name":"frequency","type":"string","internalType":"string"},{"name":"startDate","type":"uint256","internalType":"uint256"},{"name":"endDate","type":"uint256","internalType":"uint256"}]}],"stateMutability":"view"},{"type":"function","name":"viewPatientInfo","inputs":[{"name":"_patient","type":"address","internalType":"address"}],"outputs":[{"name":"","type":"tuple","internalType":"struct MedicalDataAccess.Patient","components":[{"name":"mrn","type":"string","internalType":"string"},{"name":"name","type":"string","internalType":"string"},{"name":"age","type":"uint256","internalType":"uint256"},{"name":"gender","type":"string","internalType":"string"},{"name":"physicaladdress","type":"string","internalType":"string"},{"name":"phone","type":"string","internalType":"string"},{"name":"email","type":"string","internalType":"string"}]}],"stateMutability":"view"}],"bytecode":{"object":"0x608060405234801561001057600080fd5b50336000806101000a81548173ffffffffffffffffffffffffffffffffffffffff021916908373ffffffffffffffffffffffffffffffffffffffff16021790555061287c806100606000396000f3fe608060405234801561001057600080fd5b50600436106100b45760003560e01c8063ab22a76911610071578063ab22a769146101b2578063ac9c4c7b146101ce578063aeaba0f5146101ea578063cce0dad01461021a578063f851a44014610236578063f98cb03114610254576100b4565b80631ff94776146100b9578063287b2724146100e95780633c4db6051461011a5780635778142f1461014a5780636f9255351461017a57806381c0a99114610196575b600080fd5b6100d360048036038101906100ce9190611823565b610270565b6040516100e091906119b8565b60405180910390f35b61010360048036038101906100fe91906119ff565b610740565b604051610111929190611a69565b60405180910390f35b610134600480360381019061012f9190611823565b61077e565b6040516101419190611bd8565b60405180910390f35b610164600480360381019061015f9190611823565b610ae8565b6040516101719190611d2d565b60405180910390f35b610194600480360381019061018f91906119ff565b610e48565b005b6101b060048036038101906101ab9190611eb0565b610f94565b005b6101cc60048036038101906101c79190611f3b565b611054565b005b6101e860048036038101906101e3919061200a565b611142565b005b61020460048036038101906101ff9190611823565b61121f565b60405161021191906121de565b60405180910390f35b610234600480360381019061022f9190612200565b6114ed565b005b61023e6115f9565b60405161024b9190612359565b60405180910390f35b61026e60048036038101906102699190612374565b61161d565b005b610278611774565b81600080600560003373ffffffffffffffffffffffffffffffffffffffff1673ffffffffffffffffffffffffffffffffffffffff16815260200190815260200160002060008360038111156102d0576102cf6123c7565b5b60038111156102e2576102e16123c7565b5b81526020019081526020016000206040518060400160405290816000820160009054906101000a900460ff16151515158152602001600182015481525050905080600001518015610337575080602001514211155b610376576040517f08c379a000000000000000000000000000000000000000000000000000000000815260040161036d90612453565b60405180910390fd5b600160008673ffffffffffffffffffffffffffffffffffffffff1673ffffffffffffffffffffffffffffffffffffffff1681526020019081526020016000206040518060e00160405290816000820180546103d0906124a2565b80601f01602080910402602001604051908101604052809291908181526020018280546103fc906124a2565b80156104495780601f1061041e57610100808354040283529160200191610449565b820191906000526020600020905b81548152906001019060200180831161042c57829003601f168201915b50505050508152602001600182018054610462906124a2565b80601f016020809104026020016040519081016040528092919081815260200182805461048e906124a2565b80156104db5780601f106104b0576101008083540402835291602001916104db565b820191906000526020600020905b8154815290600101906020018083116104be57829003601f168201915b50505050508152602001600282015481526020016003820180546104fe906124a2565b80601f016020809104026020016040519081016040528092919081815260200182805461052a906124a2565b80156105775780601f1061054c57610100808354040283529160200191610577565b820191906000526020600020905b81548152906001019060200180831161055a57829003601f168201915b50505050508152602001600482018054610590906124a2565b80601f01602080910402602001604051908101604052809291908181526020018280546105bc906124a2565b80156106095780601f106105de57610100808354040283529160200191610609565b820191906000526020600020905b8154815290600101906020018083116105ec57829003601f168201915b50505050508152602001600582018054610622906124a2565b80601f016020809104026020016040519081016040528092919081815260200182805461064e906124a2565b801561069b5780601f106106705761010080835404028352916020019161069b565b820191906000526020600020905b81548152906001019060200180831161067e57829003601f168201915b505050505081526020016006820180546106b4906124a2565b80601f01602080910402602001604051908101604052809291908181526020018280546106e0906124a2565b801561072d5780601f106107025761010080835404028352916020019161072d565b820191906000526020600020905b81548152906001019060200180831161071057829003601f168201915b5050505050815250509350505050919050565b6005602052816000526040600020602052806000526040600020600091509150508060000160009054906101000a900460ff16908060010154905082565b60608160036000600560003373ffffffffffffffffffffffffffffffffffffffff1673ffffffffffffffffffffffffffffffffffffffff16815260200190815260200160002060008360038111156107d9576107d86123c7565b5b60038111156107eb576107ea6123c7565b5b81526020019081526020016000206040518060400160405290816000820160009054906101000a900460ff16151515158152602001600182015481525050905080600001518015610840575080602001514211155b61087f576040517f08c379a000000000000000000000000000000000000000000000000000000000815260040161087690612453565b60405180910390fd5b600460008673ffffffffffffffffffffffffffffffffffffffff1673ffffffffffffffffffffffffffffffffffffffff168152602001908152602001600020805480602002602001604051908101604052809291908181526020016000905b82821015610ada57838290600052602060002090600502016040518060a0016040529081600082018054610911906124a2565b80601f016020809104026020016040519081016040528092919081815260200182805461093d906124a2565b801561098a5780601f1061095f5761010080835404028352916020019161098a565b820191906000526020600020905b81548152906001019060200180831161096d57829003601f168201915b505050505081526020016001820180546109a3906124a2565b80601f01602080910402602001604051908101604052809291908181526020018280546109cf906124a2565b8015610a1c5780601f106109f157610100808354040283529160200191610a1c565b820191906000526020600020905b8154815290600101906020018083116109ff57829003601f168201915b50505050508152602001600282018054610a35906124a2565b80601f0160208091040260200160405190810160405280929190818152602001828054610a61906124a2565b8015610aae5780601f10610a8357610100808354040283529160200191610aae565b820191906000526020600020905b815481529060010190602001808311610a9157829003601f168201915b5050505050815260200160038201548152602001600482015481525050815260200190600101906108de565b505050509350505050919050565b60608160026000600560003373ffffffffffffffffffffffffffffffffffffffff1673ffffffffffffffffffffffffffffffffffffffff1681526020019081526020016000206000836003811115610b4357610b426123c7565b5b6003811115610b5557610b546123c7565b5b81526020019081526020016000206040518060400160405290816000820160009054906101000a900460ff16151515158152602001600182015481525050905080600001518015610baa575080602001514211155b610be9576040517f08c379a0000000000000000000000000000000000000000000000000000000008152600401610be090612453565b60405180910390fd5b600360008673ffffffffffffffffffffffffffffffffffffffff1673ffffffffffffffffffffffffffffffffffffffff168152602001908152602001600020805480602002602001604051908101604052809291908181526020016000905b82821015610e3a5783829060005260206000209060040201604051806080016040529081600082018054610c7b906124a2565b80601f0160208091040260200160405190810160405280929190818152602001828054610ca7906124a2565b8015610cf45780601f10610cc957610100808354040283529160200191610cf4565b820191906000526020600020905b815481529060010190602001808311610cd757829003601f168201915b50505050508152602001600182018054610d0d906124a2565b80601f0160208091040260200160405190810160405280929190818152602001828054610d39906124a2565b8015610d865780601f10610d5b57610100808354040283529160200191610d86565b820191906000526020600020905b815481529060010190602001808311610d6957829003601f168201915b50505050508152602001600282018054610d9f906124a2565b80601f0160208091040260200160405190810160405280929190818152602001828054610dcb906124a2565b8015610e185780601f10610ded57610100808354040283529160200191610e18565b820191906000526020600020905b815481529060010190602001808311610dfb57829003601f168201915b5050505050815260200160038201548152505081526020019060010190610c48565b505050509350505050919050565b60008054906101000a900473ffffffffffffffffffffffffffffffffffffffff1673ffffffffffffffffffffffffffffffffffffffff163373ffffffffffffffffffffffffffffffffffffffff1614610ed6576040517f08c379a0000000000000000000000000000000000000000000000000000000008152600401610ecd90612545565b60405180910390fd5b60405180604001604052806000151581526020016000815250600560008473ffffffffffffffffffffffffffffffffffffffff1673ffffffffffffffffffffffffffffffffffffffff1681526020019081526020016000206000836003811115610f4357610f426123c7565b5b6003811115610f5557610f546123c7565b5b815260200190815260200160002060008201518160000160006101000a81548160ff021916908315150217905550602082015181600101559050505050565b600260003373ffffffffffffffffffffffffffffffffffffffff1673ffffffffffffffffffffffffffffffffffffffff1681526020019081526020016000206040518060600160405280858152602001848152602001838152509080600181540180825580915050600190039060005260206000209060030201600090919091909150600082015181600001908161102c9190612711565b5060208201518160010190816110429190612711565b50604082015181600201555050505050565b600460003373ffffffffffffffffffffffffffffffffffffffff1673ffffffffffffffffffffffffffffffffffffffff1681526020019081526020016000206040518060a0016040528087815260200186815260200185815260200184815260200183815250908060018154018082558091505060019003906000526020600020906005020160009091909190915060008201518160000190816110f89190612711565b50602082015181600101908161110e9190612711565b5060408201518160020190816111249190612711565b50606082015181600301556080820151816004015550505050505050565b600360003373ffffffffffffffffffffffffffffffffffffffff1673ffffffffffffffffffffffffffffffffffffffff168152602001908152602001600020604051806080016040528086815260200185815260200184815260200183815250908060018154018082558091505060019003906000526020600020906004020160009091909190915060008201518160000190816111e09190612711565b5060208201518160010190816111f69190612711565b50604082015181600201908161120c9190612711565b5060608201518160030155505050505050565b60608160016000600560003373ffffffffffffffffffffffffffffffffffffffff1673ffffffffffffffffffffffffffffffffffffffff168152602001908152602001600020600083600381111561127a576112796123c7565b5b600381111561128c5761128b6123c7565b5b81526020019081526020016000206040518060400160405290816000820160009054906101000a900460ff161515151581526020016001820154815250509050806000015180156112e1575080602001514211155b611320576040517f08c379a000000000000000000000000000000000000000000000000000000000815260040161131790612453565b60405180910390fd5b600260008673ffffffffffffffffffffffffffffffffffffffff1673ffffffffffffffffffffffffffffffffffffffff168152602001908152602001600020805480602002602001604051908101604052809291908181526020016000905b828210156114df57838290600052602060002090600302016040518060600160405290816000820180546113b2906124a2565b80601f01602080910402602001604051908101604052809291908181526020018280546113de906124a2565b801561142b5780601f106114005761010080835404028352916020019161142b565b820191906000526020600020905b81548152906001019060200180831161140e57829003601f168201915b50505050508152602001600182018054611444906124a2565b80601f0160208091040260200160405190810160405280929190818152602001828054611470906124a2565b80156114bd5780601f10611492576101008083540402835291602001916114bd565b820191906000526020600020905b8154815290600101906020018083116114a057829003601f168201915b505050505081526020016002820154815250508152602001906001019061137f565b505050509350505050919050565b6040518060e0016040528088815260200187815260200186815260200185815260200184815260200183815260200182815250600160003373ffffffffffffffffffffffffffffffffffffffff1673ffffffffffffffffffffffffffffffffffffffff16815260200190815260200160002060008201518160000190816115749190612711565b50602082015181600101908161158a9190612711565b506040820151816002015560608201518160030190816115aa9190612711565b5060808201518160040190816115c09190612711565b5060a08201518160050190816115d69190612711565b5060c08201518160060190816115ec9190612711565b5090505050505050505050565b60008054906101000a900473ffffffffffffffffffffffffffffffffffffffff1681565b60008054906101000a900473ffffffffffffffffffffffffffffffffffffffff1673ffffffffffffffffffffffffffffffffffffffff163373ffffffffffffffffffffffffffffffffffffffff16146116ab576040517f08c379a00000000000000000000000000000000000000000000000000000000081526004016116a290612545565b60405180910390fd5b604051806040016040528060011515815260200182426116cb9190612812565b815250600560008573ffffffffffffffffffffffffffffffffffffffff1673ffffffffffffffffffffffffffffffffffffffff1681526020019081526020016000206000846003811115611722576117216123c7565b5b6003811115611734576117336123c7565b5b815260200190815260200160002060008201518160000160006101000a81548160ff02191690831515021790555060208201518160010155905050505050565b6040518060e00160405280606081526020016060815260200160008152602001606081526020016060815260200160608152602001606081525090565b6000604051905090565b600080fd5b600080fd5b600073ffffffffffffffffffffffffffffffffffffffff82169050919050565b60006117f0826117c5565b9050919050565b611800816117e5565b811461180b57600080fd5b50565b60008135905061181d816117f7565b92915050565b600060208284031215611839576118386117bb565b5b60006118478482850161180e565b91505092915050565b600081519050919050565b600082825260208201905092915050565b60005b8381101561188a57808201518184015260208101905061186f565b60008484015250505050565b6000601f19601f8301169050919050565b60006118b282611850565b6118bc818561185b565b93506118cc81856020860161186c565b6118d581611896565b840191505092915050565b6000819050919050565b6118f3816118e0565b82525050565b600060e083016000830151848203600086015261191682826118a7565b9150506020830151848203602086015261193082826118a7565b915050604083015161194560408601826118ea565b506060830151848203606086015261195d82826118a7565b9150506080830151848203608086015261197782826118a7565b91505060a083015184820360a086015261199182826118a7565b91505060c083015184820360c08601526119ab82826118a7565b9150508091505092915050565b600060208201905081810360008301526119d281846118f9565b905092915050565b600481106119e757600080fd5b50565b6000813590506119f9816119da565b92915050565b60008060408385031215611a1657611a156117bb565b5b6000611a248582860161180e565b9250506020611a35858286016119ea565b9150509250929050565b60008115159050919050565b611a5481611a3f565b82525050565b611a63816118e0565b82525050565b6000604082019050611a7e6000830185611a4b565b611a8b6020830184611a5a565b9392505050565b600081519050919050565b600082825260208201905092915050565b6000819050602082019050919050565b600060a0830160008301518482036000860152611adb82826118a7565b91505060208301518482036020860152611af582826118a7565b91505060408301518482036040860152611b0f82826118a7565b9150506060830151611b2460608601826118ea565b506080830151611b3760808601826118ea565b508091505092915050565b6000611b4e8383611abe565b905092915050565b6000602082019050919050565b6000611b6e82611a92565b611b788185611a9d565b935083602082028501611b8a85611aae565b8060005b85811015611bc65784840389528151611ba78582611b42565b9450611bb283611b56565b925060208a01995050600181019050611b8e565b50829750879550505050505092915050565b60006020820190508181036000830152611bf28184611b63565b905092915050565b600081519050919050565b600082825260208201905092915050565b6000819050602082019050919050565b60006080830160008301518482036000860152611c4382826118a7565b91505060208301518482036020860152611c5d82826118a7565b91505060408301518482036040860152611c7782826118a7565b9150506060830151611c8c60608601826118ea565b508091505092915050565b6000611ca38383611c26565b905092915050565b6000602082019050919050565b6000611cc382611bfa565b611ccd8185611c05565b935083602082028501611cdf85611c16565b8060005b85811015611d1b5784840389528151611cfc8582611c97565b9450611d0783611cab565b925060208a01995050600181019050611ce3565b50829750879550505050505092915050565b60006020820190508181036000830152611d478184611cb8565b905092915050565b600080fd5b600080fd5b7f4e487b7100000000000000000000000000000000000000000000000000000000600052604160045260246000fd5b611d9182611896565b810181811067ffffffffffffffff82111715611db057611daf611d59565b5b80604052505050565b6000611dc36117b1565b9050611dcf8282611d88565b919050565b600067ffffffffffffffff821115611def57611dee611d59565b5b611df882611896565b9050602081019050919050565b82818337600083830152505050565b6000611e27611e2284611dd4565b611db9565b905082815260208101848484011115611e4357611e42611d54565b5b611e4e848285611e05565b509392505050565b600082601f830112611e6b57611e6a611d4f565b5b8135611e7b848260208601611e14565b91505092915050565b611e8d816118e0565b8114611e9857600080fd5b50565b600081359050611eaa81611e84565b92915050565b600080600060608486031215611ec957611ec86117bb565b5b600084013567ffffffffffffffff811115611ee757611ee66117c0565b5b611ef386828701611e56565b935050602084013567ffffffffffffffff811115611f1457611f136117c0565b5b611f2086828701611e56565b9250506040611f3186828701611e9b565b9150509250925092565b600080600080600060a08688031215611f5757611f566117bb565b5b600086013567ffffffffffffffff811115611f7557611f746117c0565b5b611f8188828901611e56565b955050602086013567ffffffffffffffff811115611fa257611fa16117c0565b5b611fae88828901611e56565b945050604086013567ffffffffffffffff811115611fcf57611fce6117c0565b5b611fdb88828901611e56565b9350506060611fec88828901611e9b565b9250506080611ffd88828901611e9b565b9150509295509295909350565b60008060008060808587031215612024576120236117bb565b5b600085013567ffffffffffffffff811115612042576120416117c0565b5b61204e87828801611e56565b945050602085013567ffffffffffffffff81111561206f5761206e6117c0565b5b61207b87828801611e56565b935050604085013567ffffffffffffffff81111561209c5761209b6117c0565b5b6120a887828801611e56565b92505060606120b987828801611e9b565b91505092959194509250565b600081519050919050565b600082825260208201905092915050565b6000819050602082019050919050565b6000606083016000830151848203600086015261210e82826118a7565b9150506020830151848203602086015261212882826118a7565b915050604083015161213d60408601826118ea565b508091505092915050565b600061215483836120f1565b905092915050565b6000602082019050919050565b6000612174826120c5565b61217e81856120d0565b935083602082028501612190856120e1565b8060005b858110156121cc57848403895281516121ad8582612148565b94506121b88361215c565b925060208a01995050600181019050612194565b50829750879550505050505092915050565b600060208201905081810360008301526121f88184612169565b905092915050565b600080600080600080600060e0888a03121561221f5761221e6117bb565b5b600088013567ffffffffffffffff81111561223d5761223c6117c0565b5b6122498a828b01611e56565b975050602088013567ffffffffffffffff81111561226a576122696117c0565b5b6122768a828b01611e56565b96505060406122878a828b01611e9b565b955050606088013567ffffffffffffffff8111156122a8576122a76117c0565b5b6122b48a828b01611e56565b945050608088013567ffffffffffffffff8111156122d5576122d46117c0565b5b6122e18a828b01611e56565b93505060a088013567ffffffffffffffff811115612302576123016117c0565b5b61230e8a828b01611e56565b92505060c088013567ffffffffffffffff81111561232f5761232e6117c0565b5b61233b8a828b01611e56565b91505092959891949750929550565b612353816117e5565b82525050565b600060208201905061236e600083018461234a565b92915050565b60008060006060848603121561238d5761238c6117bb565b5b600061239b8682870161180e565b93505060206123ac868287016119ea565b92505060406123bd86828701611e9b565b9150509250925092565b7f4e487b7100000000000000000000000000000000000000000000000000000000600052602160045260246000fd5b600082825260208201905092915050565b7f4163636573732064656e696564206f7220657870697265640000000000000000600082015250565b600061243d6018836123f6565b915061244882612407565b602082019050919050565b6000602082019050818103600083015261246c81612430565b9050919050565b7f4e487b7100000000000000000000000000000000000000000000000000000000600052602260045260246000fd5b600060028204905060018216806124ba57607f821691505b6020821081036124cd576124cc612473565b5b50919050565b7f4f6e6c792061646d696e2063616e20706572666f726d2074686973206163746960008201527f6f6e000000000000000000000000000000000000000000000000000000000000602082015250565b600061252f6022836123f6565b915061253a826124d3565b604082019050919050565b6000602082019050818103600083015261255e81612522565b9050919050565b60008190508160005260206000209050919050565b60006020601f8301049050919050565b600082821b905092915050565b6000600883026125c77fffffffffffffffffffffffffffffffffffffffffffffffffffffffffffffffff8261258a565b6125d1868361258a565b95508019841693508086168417925050509392505050565b6000819050919050565b600061260e612609612604846118e0565b6125e9565b6118e0565b9050919050565b6000819050919050565b612628836125f3565b61263c61263482612615565b848454612597565b825550505050565b600090565b612651612644565b61265c81848461261f565b505050565b5b8181101561268057612675600082612649565b600181019050612662565b5050565b601f8211156126c55761269681612565565b61269f8461257a565b810160208510156126ae578190505b6126c26126ba8561257a565b830182612661565b50505b505050565b600082821c905092915050565b60006126e8600019846008026126ca565b1980831691505092915050565b600061270183836126d7565b9150826002028217905092915050565b61271a82611850565b67ffffffffffffffff81111561273357612732611d59565b5b61273d82546124a2565b612748828285612684565b600060209050601f83116001811461277b5760008415612769578287015190505b61277385826126f5565b8655506127db565b601f19841661278986612565565b60005b828110156127b15784890151825560018201915060208501945060208101905061278c565b868310156127ce57848901516127ca601f8916826126d7565b8355505b6001600288020188555050505b505050505050565b7f4e487b7100000000000000000000000000000000000000000000000000000000600052601160045260246000fd5b600061281d826118e0565b9150612828836118e0565b92508282019050808211156128405761283f6127e3565b5b9291505056fea26469706673582212209a86aeec8c73ff9b21090d3fcaae8164c2262a6a6661e6adb111b5079993be4064736f6c63430008130033","linkReferences":{}},"methodIdentifiers":{"accessPermissions(address,uint8)":"287b2724","addBloodTest(string,string,uint256)":"81c0a991","addImaging(string,string,string,uint256)":"ac9c4c7b","addMedication(string,string,string,uint256,uint256)":"ab22a769","admin()":"f851a440","grantTimedAccess(address,uint8,uint256)":"f98cb031","registerPatient(string,string,uint256,string,string,string,string)":"cce0dad0","revokeAccess(address,uint8)":"6f925535","viewBloodTests(address)":"aeaba0f5","viewImaging(address)":"5778142f","viewMedications(address)":"3c4db605","viewPatientInfo(address)":"1ff94776"},"id":0}