{"abi":[{"type":"constructor","inputs":[],"stateMutability":"nonpayable"},{"type":"function","name":"accessPermissions","inputs":[{"name":"","type":"address","internalType":"address"},{"name":"","type":"uint8","internalType":"enum MedicalDataAccess.Section"}],"outputs":[{"name":"isActive","type":"bool","internalType":"bool"},{"name":"expiresAt","type":"uint256","internalType":"uint256"}],"stateMutability":"view"},{"type":"function","name":"addBloodTest","inputs":[{"name":"_pdfHash","type":"string","internalType":"string"},{"name":"_description","type":"string","internalType":"string"},{"name":"_date","type":"uint256","internalType":"uint256"}],"outputs":[],"stateMutability":"nonpayable"},{"type":"function","name":"addImaging","inputs":[{"name":"_type","type":"string","internalType":"string"},{"name":"_description","type":"string","internalType":"string"},{"name":"_imageHash","type":"string","internalType":"string"},{"name":"_date","type":"uint256","internalType":"uint256"}],"outputs":[],"stateMutability":"nonpayable"},{"type":"function","name":"addMedication","inputs":[{"name":"_drug","type":"string","internalType":"string"},{"name":"_dosage","type":"string","internalType":"string"},{"name":"_frequency","type":"string","internalType":"string"},{"name":"_start","type":"uint256","internalType":"uint256"},{"name":"_end","type":"uint256","internalType":"uint256"}],"outputs":[],"stateMutability":"nonpayable"},{"type":"function","name":"admin","inputs":[],"outputs":[{"name":"","type":"address","internalType":"address"}],"stateMutability":"view"},{"type":"function","name":"grantTimedAccess","inputs":[{"name":"user","type":"address","internalType":"address"},{"name":"section","type":"uint8","internalType":"enum MedicalDataAccess.Section"},{"name":"durationSeconds","type":"uint256","internalType":"uint256"}],"outputs":[],"stateMutability":"nonpayable"},{"type":"function","name":"registerPatient","inputs":[{"name":"_mrn","type":"string","internalType":"string"},{"name":"_name","type":"string","internalType":"string"},{"name":"_age","type":"uint256","internalType":"uint256"},{"name":"_gender","type":"string","internalType":"string"},{"name":"_physicaladdress","type":"string","internalType":"string"},{"name":"_phone","type":"string","internalType":"string"},{"name":"_email","type":"string","internalType":"string"}],"outputs":[],"stateMutability":"nonpayable"},{"type":"function","name":"revokeAccess","inputs":[{"name":"user","type":"address","internalType":"address"},{"name":"section","type":"uint8","internalType":"enum MedicalDataAccess.Section"}],"outputs":[],"stateMutability":"nonpayable"},{"type":"function","name":"viewBloodTests","inputs":[{"name":"_patient","type":"address","internalType":"address"}],"outputs":[{"name":"","type":"tuple[]","internalType":"struct MedicalDataAccess.BloodTest[]","components":[{"name":"pdfHash","type":"string","internalType":"string"},{"name":"description","type":"string","internalType":"string"},{"name":"date","type":"uint256","internalType":"uint256"}]}],"stateMutability":"view"},{"type":"function","name":"viewImaging","inputs":[{"name":"_patient","type":"address","internalType":"address"}],"outputs":[{"name":"","type":"tuple[]","internalType":"struct MedicalDataAccess.ImagingRecord[]","components":[{"name":"imageType","type":"string","internalType":"string"},{"name":"description","type":"string","internalType":"string"},{"name":"imageHash","type":"string","internalType":"string"},{"name":"date","type":"uint256","internalType":"uint256"}]}],"stateMutability":"view"},{"type":"function","name":"viewMedications","inputs":[{"name":"_patient","type":"address","internalType":"address"}],"outputs":[{"name":"","type":"tuple[]","internalType":"struct MedicalDataAccess.Medication[]","components":[{"name":"drugName","type":"string","internalType":"string"},{"name":"dosage","type":"string","internalType":"string"},{"name":"frequency","type":"string","internalType":"string"},{"name":"startDate","type":"uint256","internalType":"uint256"},{"name":"endDate","type":"uint256","internalType":"uint256"}]}],"stateMutability":"view"},{"type":"function","name":"viewPatientInfo","inputs":[{"name":"_patient","type":"address","internalType":"address"}],"outputs":[{"name":"","type":"tuple","internalType":"struct MedicalDataAccess.Patient","components":[{"name":"mrn","type":"string","internalType":"string"},{"name":"name","type":"string","internalType":"string"},{"name":"age","type":"uint256","internalType":"uint256"},{"name":"gender","type":"string","internalType":"string"},{"name":"physicaladdress","type":"string","internalType":"string"},{"name":"phone","type":"string","internalType":"string"},{"name":"email","type":"string","internalType":"string"}]}],"stateMutability":"view"}],"bytecode":{"object":"0x6080604052348015600e575f5ffd5b50335f5f6101000a81548173ffffffffffffffffffffffffffffffffffffffff021916908373ffffffffffffffffffffffffffffffffffffffff16021790555061275e8061005b5f395ff3fe608060405234801561000f575f5ffd5b50600436106100b2575f3560e01c8063ab22a7691161006f578063ab22a769146101af578063ac9c4c7b146101cb578063aeaba0f5146101e7578063cce0dad014610217578063f851a44014610233578063f98cb03114610251576100b2565b80631ff94776146100b6578063287b2724146100e65780633c4db605146101175780635778142f146101475780636f9255351461017757806381c0a99114610193575b5f5ffd5b6100d060048036038101906100cb9190611797565b61026d565b6040516100dd9190611906565b60405180910390f35b61010060048036038101906100fb9190611949565b610726565b60405161010e9291906119b0565b60405180910390f35b610131600480360381019061012c9190611797565b61075d565b60405161013e9190611b13565b60405180910390f35b610161600480360381019061015c9190611797565b610ab3565b60405161016e9190611c5c565b60405180910390f35b610191600480360381019061018c9190611949565b610dff565b005b6101ad60048036038101906101a89190611dd2565b610f42565b005b6101c960048036038101906101c49190611e5a565b610ffb565b005b6101e560048036038101906101e09190611f25565b6110e2565b005b61020160048036038101906101fc9190611797565b6111b8565b60405161020e91906120ec565b60405180910390f35b610231600480360381019061022c919061210c565b611474565b005b61023b61157c565b6040516102489190612260565b60405180910390f35b61026b60048036038101906102669190612279565b6115a0565b005b6102756116f0565b815f5f60055f3373ffffffffffffffffffffffffffffffffffffffff1673ffffffffffffffffffffffffffffffffffffffff1681526020019081526020015f205f8360038111156102c9576102c86122c9565b5b60038111156102db576102da6122c9565b5b81526020019081526020015f206040518060400160405290815f82015f9054906101000a900460ff161515151581526020016001820154815250509050805f0151801561032c575080602001514211155b61036b576040517f08c379a000000000000000000000000000000000000000000000000000000000815260040161036290612350565b60405180910390fd5b60015f8673ffffffffffffffffffffffffffffffffffffffff1673ffffffffffffffffffffffffffffffffffffffff1681526020019081526020015f206040518060e00160405290815f820180546103c29061239b565b80601f01602080910402602001604051908101604052809291908181526020018280546103ee9061239b565b80156104395780601f1061041057610100808354040283529160200191610439565b820191905f5260205f20905b81548152906001019060200180831161041c57829003601f168201915b505050505081526020016001820180546104529061239b565b80601f016020809104026020016040519081016040528092919081815260200182805461047e9061239b565b80156104c95780601f106104a0576101008083540402835291602001916104c9565b820191905f5260205f20905b8154815290600101906020018083116104ac57829003601f168201915b50505050508152602001600282015481526020016003820180546104ec9061239b565b80601f01602080910402602001604051908101604052809291908181526020018280546105189061239b565b80156105635780601f1061053a57610100808354040283529160200191610563565b820191905f5260205f20905b81548152906001019060200180831161054657829003601f168201915b5050505050815260200160048201805461057c9061239b565b80601f01602080910402602001604051908101604052809291908181526020018280546105a89061239b565b80156105f35780601f106105ca576101008083540402835291602001916105f3565b820191905f5260205f20905b8154815290600101906020018083116105d657829003601f168201915b5050505050815260200160058201805461060c9061239b565b80601f01602080910402602001604051908101604052809291908181526020018280546106389061239b565b80156106835780601f1061065a57610100808354040283529160200191610683565b820191905f5260205f20905b81548152906001019060200180831161066657829003601f168201915b5050505050815260200160068201805461069c9061239b565b80601f01602080910402602001604051908101604052809291908181526020018280546106c89061239b565b80156107135780601f106106ea57610100808354040283529160200191610713565b820191905f5260205f20905b8154815290600101906020018083116106f657829003601f168201915b5050505050815250509350505050919050565b6005602052815f5260405f20602052805f5260405f205f9150915050805f015f9054906101000a900460ff16908060010154905082565b60608160035f60055f3373ffffffffffffffffffffffffffffffffffffffff1673ffffffffffffffffffffffffffffffffffffffff1681526020019081526020015f205f8360038111156107b4576107b36122c9565b5b60038111156107c6576107c56122c9565b5b81526020019081526020015f206040518060400160405290815f82015f9054906101000a900460ff161515151581526020016001820154815250509050805f01518015610817575080602001514211155b610856576040517f08c379a000000000000000000000000000000000000000000000000000000000815260040161084d90612350565b60405180910390fd5b60045f8673ffffffffffffffffffffffffffffffffffffffff1673ffffffffffffffffffffffffffffffffffffffff1681526020019081526020015f20805480602002602001604051908101604052809291908181526020015f905b82821015610aa5578382905f5260205f2090600502016040518060a00160405290815f820180546108e29061239b565b80601f016020809104026020016040519081016040528092919081815260200182805461090e9061239b565b80156109595780601f1061093057610100808354040283529160200191610959565b820191905f5260205f20905b81548152906001019060200180831161093c57829003601f168201915b505050505081526020016001820180546109729061239b565b80601f016020809104026020016040519081016040528092919081815260200182805461099e9061239b565b80156109e95780601f106109c0576101008083540402835291602001916109e9565b820191905f5260205f20905b8154815290600101906020018083116109cc57829003601f168201915b50505050508152602001600282018054610a029061239b565b80601f0160208091040260200160405190810160405280929190818152602001828054610a2e9061239b565b8015610a795780601f10610a5057610100808354040283529160200191610a79565b820191905f5260205f20905b815481529060010190602001808311610a5c57829003601f168201915b5050505050815260200160038201548152602001600482015481525050815260200190600101906108b2565b505050509350505050919050565b60608160025f60055f3373ffffffffffffffffffffffffffffffffffffffff1673ffffffffffffffffffffffffffffffffffffffff1681526020019081526020015f205f836003811115610b0a57610b096122c9565b5b6003811115610b1c57610b1b6122c9565b5b81526020019081526020015f206040518060400160405290815f82015f9054906101000a900460ff161515151581526020016001820154815250509050805f01518015610b6d575080602001514211155b610bac576040517f08c379a0000000000000000000000000000000000000000000000000000000008152600401610ba390612350565b60405180910390fd5b60035f8673ffffffffffffffffffffffffffffffffffffffff1673ffffffffffffffffffffffffffffffffffffffff1681526020019081526020015f20805480602002602001604051908101604052809291908181526020015f905b82821015610df1578382905f5260205f2090600402016040518060800160405290815f82018054610c389061239b565b80601f0160208091040260200160405190810160405280929190818152602001828054610c649061239b565b8015610caf5780601f10610c8657610100808354040283529160200191610caf565b820191905f5260205f20905b815481529060010190602001808311610c9257829003601f168201915b50505050508152602001600182018054610cc89061239b565b80601f0160208091040260200160405190810160405280929190818152602001828054610cf49061239b565b8015610d3f5780601f10610d1657610100808354040283529160200191610d3f565b820191905f5260205f20905b815481529060010190602001808311610d2257829003601f168201915b50505050508152602001600282018054610d589061239b565b80601f0160208091040260200160405190810160405280929190818152602001828054610d849061239b565b8015610dcf5780601f10610da657610100808354040283529160200191610dcf565b820191905f5260205f20905b815481529060010190602001808311610db257829003601f168201915b5050505050815260200160038201548152505081526020019060010190610c08565b505050509350505050919050565b5f5f9054906101000a900473ffffffffffffffffffffffffffffffffffffffff1673ffffffffffffffffffffffffffffffffffffffff163373ffffffffffffffffffffffffffffffffffffffff1614610e8d576040517f08c379a0000000000000000000000000000000000000000000000000000000008152600401610e849061243b565b60405180910390fd5b60405180604001604052805f151581526020015f81525060055f8473ffffffffffffffffffffffffffffffffffffffff1673ffffffffffffffffffffffffffffffffffffffff1681526020019081526020015f205f836003811115610ef557610ef46122c9565b5b6003811115610f0757610f066122c9565b5b81526020019081526020015f205f820151815f015f6101000a81548160ff021916908315150217905550602082015181600101559050505050565b60025f3373ffffffffffffffffffffffffffffffffffffffff1673ffffffffffffffffffffffffffffffffffffffff1681526020019081526020015f20604051806060016040528085815260200184815260200183815250908060018154018082558091505060019003905f5260205f2090600302015f909190919091505f820151815f019081610fd391906125f9565b506020820151816001019081610fe991906125f9565b50604082015181600201555050505050565b60045f3373ffffffffffffffffffffffffffffffffffffffff1673ffffffffffffffffffffffffffffffffffffffff1681526020019081526020015f206040518060a0016040528087815260200186815260200185815260200184815260200183815250908060018154018082558091505060019003905f5260205f2090600502015f909190919091505f820151815f01908161109891906125f9565b5060208201518160010190816110ae91906125f9565b5060408201518160020190816110c491906125f9565b50606082015181600301556080820151816004015550505050505050565b60035f3373ffffffffffffffffffffffffffffffffffffffff1673ffffffffffffffffffffffffffffffffffffffff1681526020019081526020015f20604051806080016040528086815260200185815260200184815260200183815250908060018154018082558091505060019003905f5260205f2090600402015f909190919091505f820151815f01908161117991906125f9565b50602082015181600101908161118f91906125f9565b5060408201518160020190816111a591906125f9565b5060608201518160030155505050505050565b60608160015f60055f3373ffffffffffffffffffffffffffffffffffffffff1673ffffffffffffffffffffffffffffffffffffffff1681526020019081526020015f205f83600381111561120f5761120e6122c9565b5b6003811115611221576112206122c9565b5b81526020019081526020015f206040518060400160405290815f82015f9054906101000a900460ff161515151581526020016001820154815250509050805f01518015611272575080602001514211155b6112b1576040517f08c379a00000000000000000000000000000000000000000000000000000000081526004016112a890612350565b60405180910390fd5b60025f8673ffffffffffffffffffffffffffffffffffffffff1673ffffffffffffffffffffffffffffffffffffffff1681526020019081526020015f20805480602002602001604051908101604052809291908181526020015f905b82821015611466578382905f5260205f2090600302016040518060600160405290815f8201805461133d9061239b565b80601f01602080910402602001604051908101604052809291908181526020018280546113699061239b565b80156113b45780601f1061138b576101008083540402835291602001916113b4565b820191905f5260205f20905b81548152906001019060200180831161139757829003601f168201915b505050505081526020016001820180546113cd9061239b565b80601f01602080910402602001604051908101604052809291908181526020018280546113f99061239b565b80156114445780601f1061141b57610100808354040283529160200191611444565b820191905f5260205f20905b81548152906001019060200180831161142757829003601f168201915b505050505081526020016002820154815250508152602001906001019061130d565b505050509350505050919050565b6040518060e001604052808881526020018781526020018681526020018581526020018481526020018381526020018281525060015f3373ffffffffffffffffffffffffffffffffffffffff1673ffffffffffffffffffffffffffffffffffffffff1681526020019081526020015f205f820151815f0190816114f791906125f9565b50602082015181600101908161150d91906125f9565b5060408201518160020155606082015181600301908161152d91906125f9565b50608082015181600401908161154391906125f9565b5060a082015181600501908161155991906125f9565b5060c082015181600601908161156f91906125f9565b5090505050505050505050565b5f5f9054906101000a900473ffffffffffffffffffffffffffffffffffffffff1681565b5f5f9054906101000a900473ffffffffffffffffffffffffffffffffffffffff1673ffffffffffffffffffffffffffffffffffffffff163373ffffffffffffffffffffffffffffffffffffffff161461162e576040517f08c379a00000000000000000000000000000000000000000000000000000000081526004016116259061243b565b60405180910390fd5b6040518060400160405280600115158152602001824261164e91906126f5565b81525060055f8573ffffffffffffffffffffffffffffffffffffffff1673ffffffffffffffffffffffffffffffffffffffff1681526020019081526020015f205f8460038111156116a2576116a16122c9565b5b60038111156116b4576116b36122c9565b5b81526020019081526020015f205f820151815f015f6101000a81548160ff02191690831515021790555060208201518160010155905050505050565b6040518060e0016040528060608152602001606081526020015f8152602001606081526020016060815260200160608152602001606081525090565b5f604051905090565b5f5ffd5b5f5ffd5b5f73ffffffffffffffffffffffffffffffffffffffff82169050919050565b5f6117668261173d565b9050919050565b6117768161175c565b8114611780575f5ffd5b50565b5f813590506117918161176d565b92915050565b5f602082840312156117ac576117ab611735565b5b5f6117b984828501611783565b91505092915050565b5f81519050919050565b5f82825260208201905092915050565b8281835e5f83830152505050565b5f601f19601f8301169050919050565b5f611804826117c2565b61180e81856117cc565b935061181e8185602086016117dc565b611827816117ea565b840191505092915050565b5f819050919050565b61184481611832565b82525050565b5f60e083015f8301518482035f86015261186482826117fa565b9150506020830151848203602086015261187e82826117fa565b9150506040830151611893604086018261183b565b50606083015184820360608601526118ab82826117fa565b915050608083015184820360808601526118c582826117fa565b91505060a083015184820360a08601526118df82826117fa565b91505060c083015184820360c08601526118f982826117fa565b9150508091505092915050565b5f6020820190508181035f83015261191e818461184a565b905092915050565b60048110611932575f5ffd5b50565b5f8135905061194381611926565b92915050565b5f5f6040838503121561195f5761195e611735565b5b5f61196c85828601611783565b925050602061197d85828601611935565b9150509250929050565b5f8115159050919050565b61199b81611987565b82525050565b6119aa81611832565b82525050565b5f6040820190506119c35f830185611992565b6119d060208301846119a1565b9392505050565b5f81519050919050565b5f82825260208201905092915050565b5f819050602082019050919050565b5f60a083015f8301518482035f860152611a1a82826117fa565b91505060208301518482036020860152611a3482826117fa565b91505060408301518482036040860152611a4e82826117fa565b9150506060830151611a63606086018261183b565b506080830151611a76608086018261183b565b508091505092915050565b5f611a8c8383611a00565b905092915050565b5f602082019050919050565b5f611aaa826119d7565b611ab481856119e1565b935083602082028501611ac6856119f1565b805f5b85811015611b015784840389528151611ae28582611a81565b9450611aed83611a94565b925060208a01995050600181019050611ac9565b50829750879550505050505092915050565b5f6020820190508181035f830152611b2b8184611aa0565b905092915050565b5f81519050919050565b5f82825260208201905092915050565b5f819050602082019050919050565b5f608083015f8301518482035f860152611b7682826117fa565b91505060208301518482036020860152611b9082826117fa565b91505060408301518482036040860152611baa82826117fa565b9150506060830151611bbf606086018261183b565b508091505092915050565b5f611bd58383611b5c565b905092915050565b5f602082019050919050565b5f611bf382611b33565b611bfd8185611b3d565b935083602082028501611c0f85611b4d565b805f5b85811015611c4a5784840389528151611c2b8582611bca565b9450611c3683611bdd565b925060208a01995050600181019050611c12565b50829750879550505050505092915050565b5f6020820190508181035f830152611c748184611be9565b905092915050565b5f5ffd5b5f5ffd5b7f4e487b71000000000000000000000000000000000000000000000000000000005f52604160045260245ffd5b611cba826117ea565b810181811067ffffffffffffffff82111715611cd957611cd8611c84565b5b80604052505050565b5f611ceb61172c565b9050611cf78282611cb1565b919050565b5f67ffffffffffffffff821115611d1657611d15611c84565b5b611d1f826117ea565b9050602081019050919050565b828183375f83830152505050565b5f611d4c611d4784611cfc565b611ce2565b905082815260208101848484011115611d6857611d67611c80565b5b611d73848285611d2c565b509392505050565b5f82601f830112611d8f57611d8e611c7c565b5b8135611d9f848260208601611d3a565b91505092915050565b611db181611832565b8114611dbb575f5ffd5b50565b5f81359050611dcc81611da8565b92915050565b5f5f5f60608486031215611de957611de8611735565b5b5f84013567ffffffffffffffff811115611e0657611e05611739565b5b611e1286828701611d7b565b935050602084013567ffffffffffffffff811115611e3357611e32611739565b5b611e3f86828701611d7b565b9250506040611e5086828701611dbe565b9150509250925092565b5f5f5f5f5f60a08688031215611e7357611e72611735565b5b5f86013567ffffffffffffffff811115611e9057611e8f611739565b5b611e9c88828901611d7b565b955050602086013567ffffffffffffffff811115611ebd57611ebc611739565b5b611ec988828901611d7b565b945050604086013567ffffffffffffffff811115611eea57611ee9611739565b5b611ef688828901611d7b565b9350506060611f0788828901611dbe565b9250506080611f1888828901611dbe565b9150509295509295909350565b5f5f5f5f60808587031215611f3d57611f3c611735565b5b5f85013567ffffffffffffffff811115611f5a57611f59611739565b5b611f6687828801611d7b565b945050602085013567ffffffffffffffff811115611f8757611f86611739565b5b611f9387828801611d7b565b935050604085013567ffffffffffffffff811115611fb457611fb3611739565b5b611fc087828801611d7b565b9250506060611fd187828801611dbe565b91505092959194509250565b5f81519050919050565b5f82825260208201905092915050565b5f819050602082019050919050565b5f606083015f8301518482035f86015261202082826117fa565b9150506020830151848203602086015261203a82826117fa565b915050604083015161204f604086018261183b565b508091505092915050565b5f6120658383612006565b905092915050565b5f602082019050919050565b5f61208382611fdd565b61208d8185611fe7565b93508360208202850161209f85611ff7565b805f5b858110156120da57848403895281516120bb858261205a565b94506120c68361206d565b925060208a019950506001810190506120a2565b50829750879550505050505092915050565b5f6020820190508181035f8301526121048184612079565b905092915050565b5f5f5f5f5f5f5f60e0888a03121561212757612126611735565b5b5f88013567ffffffffffffffff81111561214457612143611739565b5b6121508a828b01611d7b565b975050602088013567ffffffffffffffff81111561217157612170611739565b5b61217d8a828b01611d7b565b965050604061218e8a828b01611dbe565b955050606088013567ffffffffffffffff8111156121af576121ae611739565b5b6121bb8a828b01611d7b565b945050608088013567ffffffffffffffff8111156121dc576121db611739565b5b6121e88a828b01611d7b565b93505060a088013567ffffffffffffffff81111561220957612208611739565b5b6122158a828b01611d7b565b92505060c088013567ffffffffffffffff81111561223657612235611739565b5b6122428a828b01611d7b565b91505092959891949750929550565b61225a8161175c565b82525050565b5f6020820190506122735f830184612251565b92915050565b5f5f5f606084860312156122905761228f611735565b5b5f61229d86828701611783565b93505060206122ae86828701611935565b92505060406122bf86828701611dbe565b9150509250925092565b7f4e487b71000000000000000000000000000000000000000000000000000000005f52602160045260245ffd5b5f82825260208201905092915050565b7f4163636573732064656e696564206f72206578706972656400000000000000005f82015250565b5f61233a6018836122f6565b915061234582612306565b602082019050919050565b5f6020820190508181035f8301526123678161232e565b9050919050565b7f4e487b71000000000000000000000000000000000000000000000000000000005f52602260045260245ffd5b5f60028204905060018216806123b257607f821691505b6020821081036123c5576123c461236e565b5b50919050565b7f4f6e6c792061646d696e2063616e20706572666f726d207468697320616374695f8201527f6f6e000000000000000000000000000000000000000000000000000000000000602082015250565b5f6124256022836122f6565b9150612430826123cb565b604082019050919050565b5f6020820190508181035f83015261245281612419565b9050919050565b5f819050815f5260205f209050919050565b5f6020601f8301049050919050565b5f82821b905092915050565b5f600883026124b57fffffffffffffffffffffffffffffffffffffffffffffffffffffffffffffffff8261247a565b6124bf868361247a565b95508019841693508086168417925050509392505050565b5f819050919050565b5f6124fa6124f56124f084611832565b6124d7565b611832565b9050919050565b5f819050919050565b612513836124e0565b61252761251f82612501565b848454612486565b825550505050565b5f5f905090565b61253e61252f565b61254981848461250a565b505050565b5b8181101561256c576125615f82612536565b60018101905061254f565b5050565b601f8211156125b15761258281612459565b61258b8461246b565b8101602085101561259a578190505b6125ae6125a68561246b565b83018261254e565b50505b505050565b5f82821c905092915050565b5f6125d15f19846008026125b6565b1980831691505092915050565b5f6125e983836125c2565b9150826002028217905092915050565b612602826117c2565b67ffffffffffffffff81111561261b5761261a611c84565b5b612625825461239b565b612630828285612570565b5f60209050601f831160018114612661575f841561264f578287015190505b61265985826125de565b8655506126c0565b601f19841661266f86612459565b5f5b8281101561269657848901518255600182019150602085019450602081019050612671565b868310156126b357848901516126af601f8916826125c2565b8355505b6001600288020188555050505b505050505050565b7f4e487b71000000000000000000000000000000000000000000000000000000005f52601160045260245ffd5b5f6126ff82611832565b915061270a83611832565b9250828201905080821115612722576127216126c8565b5b9291505056fea264697066735822122018c18d83beaab12bab450f23475cc12456203ec978a44520a81aea5b18e80e8b64736f6c634300081e0033","linkReferences":{}},"methodIdentifiers":{"accessPermissions(address,uint8)":"287b2724","addBloodTest(string,string,uint256)":"81c0a991","addImaging(string,string,string,uint256)":"ac9c4c7b","addMedication(string,string,string,uint256,uint256)":"ab22a769","admin()":"f851a440","grantTimedAccess(address,uint8,uint256)":"f98cb031","registerPatient(string,string,uint256,string,string,string,string)":"cce0dad0","revokeAccess(address,uint8)":"6f925535","viewBloodTests(address)":"aeaba0f5","viewImaging(address)":"5778142f","viewMedications(address)":"3c4db605","viewPatientInfo(address)":"1ff94776"},"id":16}